000000000358046929100  150812340000000001Autorizada                                   0100958221850000000000Orrego Díaz Alvaro  010720050000000000000000   01072005140720050140000000000000000
000000000358046929100  150812320000000001Autorizada                                   0100958221850000000000Orrego Díaz Alvaro  240620050000000000000000   24062005300620050070000000000000000
000000000358046929100  150812310000000001Autorizada                                   0100958221850000000000Orrego Díaz Alvaro  100620050000000000000000   09062005230620050150000000000000000
000000000393586119100  152682880000000001Autorizada                                   0100908746080000000000Jackson Salinas Anth060920050000000000000000   07092005061020050300000000000000000
000000000393586119100  152682750000000001Autorizada                                   0100908746080000000000Jackson Salinas Anth050820050000000000000000   08082005060920050300000000000000000
000000000404643799100  152672670000000001Autorizada                                   0100511386350000000000SPRINGMULLER G. RAUL020620050000000000000000   04062005030720050300000000000000000
000000000404643799100  152672940000000001Autorizada                                   0100511386350000000000Sprigmuller S. Raúl 010720050000000000000000   04072005020820050300000000000000000
000000000404643799100  156402530000000001Autorizada                                   0100511386350000000000Springmuller G. Raúl260720050000000000000000   03082005010920050300000000000000000
000000000404643799100  152672580000000001Autorizada                                   0100511386350000000000Springmuller G- Raúl050520050000000000000000   05052005030620050300000000000000000
000000000404643799100  156402640000000001Autorizada                                   0100511386350000000000Spirigmuller G. Raúl300820050000000000000000   02092005011020050300000000000000000
000000000420590569100  949333160000000001Autorizada                                   0102115768390000000000Alexandra Vicuña    130720050000000000000000   13072005150720050030000000000000000
000000000420590569100  149333200000000001Autorizada                                   0102115768390000000000VICUÑA CHIA ALEXANDR160720050000000000000000   16072005200720050050000000000000000
000000000420590569100  149333290000000001Autorizada                                   0101072432910000000000lake maluenda carla 200720050000000000000000   21072005300720050100000000000000000
000000000442074519100  156343540000000001Autorizada                                   0100459356980000000000Jadue Jadue Carlos  050720050000000000000000   07072005110720050050000000000000000
000000000442074519100  141533420000000001Autorizada                                   0100466253230000000000Chadid Saadi Pedro  240620050000000000000000   25062005060720050120000000000000000
000000000447178759100  154556730000000001Autorizada                                   0100639202820000000000Orrego Salow Alvaro 210620050000000000000000   21062005050720050150000000000000000
000000000447178759100  154556910000000001Autorizada                                   0100639202820000000000Orrego Salow Alvaro 050720050000000000000000   06072005260720050210000000000000000
000000000447178759100  166655090000000001Autorizada                                   0100610832430000000000Puelle Escala Lorenz200920050000000000000000   20092005011020050120000000000000000
000000000447178759100  166774440000000001Autorizada                                   0100610832430000000000Puelle scala Lorenzo290820050000000000000000   29082005180920050210000000000000000
000000000449029319100  154518840000000001Autorizada                                   0100867027620000000000Barchiessi Ferrari A300820050000000000000000   02092005040920050030000000000000000
000000000449029319100  947173250000000001Autorizada                                   01013634370K0000000000Contreras Tapia Veró180620050000000000000000   18062005190620050020000000000000000
000000000449029319100  954518840000000001Autorizada                                   0100867027620000000000Barchiessi  Ferrari 300820050000000000000000   30082005010920050030000000000000000
0000000004821505K9100  942474450000000001Autorizada                                   0101272246840000000000Sandoval Martínez An030820050000000000000000   03082005050820050030000000000000000
0000000004821505K9100  142474450000000001Autorizada                                   0101272246840000000000Sandoval Martínez An030820050000000000000000   06082005060820050010000000000000000
000000000483018359100  159932120000000001Autorizada                                   0101448749860000000000Rola Zela Luis Migue070920050000000000000000   08092005071020050300000000000000000
000000000483018359100  159931890000000001Autorizada                                   0101448749860000000000Roca Zela Luis Migue250720050000000000000000   25072005080820050150000000000000000
000000000487947349100  144587510000000001Autorizada                                   0100737087530000000000Andrade Cifuentes Ge200620050000000000000000   16062005300620050150000000000000000
000000000489151919100  159743850000000001Autorizada                                   0100311772430000000000Isla Quiroz Oscar   090920050000000000000000   10092005120920050030000000000000000
000000000489151919100  159743690000000001Autorizada                                   0100311772430000000000Isla Quiroz Oscar   010920050000000000000000   05092005090920050050000000000000000
000000000489151919100  959743690000000001Autorizada                                   0100311772430000000000Isla Quiroz Oscar   010920050000000000000000   02092005040920050030000000000000000
000000000490470969100  966772650000000001Autorizada                                   01008350613K0000000000Parada Pozas Leopold060920050000000000000000   07092005090920050030000000000000000
000000000490470969100  166655510000000001Autorizada                                   01008350613K0000000000Parada Pozas Leopold120920050000000000000000   14092005200920050070000000000000000
000000000490470969100  166772650000000001Autorizada                                   01008350613K0000000000Parada Pozas Leopold060920050000000000000000   10092005130920050040000000000000000
000000000500297009100  128535990000000001Autorizada                                   0101467216560000000000Rios Arduz Johnny   100520050000000000000000   13052005140520050020000000000000000
000000000500297009100  928535990000000001Autorizada                                   0101467216560000000000Rios Arduz Johnny   100520050000000000000000   10052005120520050030000000000000000
0000000005006400K9100  159741060000000001Autorizada                                   0100657786450000000000Serantes Cristal Jor020920050000000000000000   02092005210920050200000000000000000
0000000005006400K9100  159741320000000001Autorizada                                   0100657786450000000000Serantes Cristal Jor200920050000000000000000   22092005061020050150000000000000000
0000000005006400K9100  157321250000000001Autorizada                                   0100657786450000000000Serantes Cristal Jor180820050000000000000000   18082005010920050150000000000000000
0000000005006400K9100  152665870000000001Autorizada                                   0100657786450000000000Serantes Cristal Jor100520050000000000000000   11052005250520050150000000000000000
0000000005006400K9100  150800930000000001Autorizada                                   0100702156080000000000Cooper Gerald M.    140620050000000000000000   15062005290620050150000000000000000
0000000005006400K9100  150800990000000001Autorizada                                   0100702156080000000000Coopeer Macqueen Ger290620050000000000000000   30062005140720050150000000000000000
0000000005006400K9100  150800870000000001Autorizada                                   0100702156080000000000Cooper M. Gerald    260520050000000000000000   26052005140620050200000000000000000
000000000503200229100  947164580000000001Autorizada                                   0100338385220000000000Lobo Seeman Oscar   070620050000000000000000   07062005090620050030000000000000000
000000000503200229100  147164580000000001Autorizada                                   0100338385220000000000Lobo Seeman Oscar   070620050000000000000000   10062005130620050040000000000000000
000000000503200229100  147164810000000001Autorizada                                   0100338385220000000000Lobo Seeman Oscar   140620050000000000000000   14062005200620050070000000000000000
000000000504456589100  142456940000000001Autorizada                                   0100927458560000000000González Díaz Fernan060520050000000000000000   07052005050620050300000000000000000
000000000506583929100  147226960000000001Autorizada                                   0100942550660000000000Bórquez Tapia Jaime 050720050000000000000000   08072005110720050040000000000000000
000000000506583929100  149766790000000001Autorizada                                   0100942550660000000000Bórquez Tapia Jaime 240820050000000000000000   29082005310820050030000000000000000
000000000506583929100  148310610000000001Autorizada                                   0100942550660000000000Bórquez Tapia Jaime 110720050000000000000000   12072005160720050050000000000000000
000000000506583929100  949766790000000001Autorizada                                   0100942550660000000000Bórquez Tapia Jaime 240820050000000000000000   26082005280820050030000000000000000
000000000506583929100  947226960000000001Autorizada                                   0100942550660000000000Bórquez Tapia Jaime 050720050000000000000000   05072005070720050030000000000000000
0000000005151792K9100  152680170000000001Autorizada                                   0100685951500000000000Mónica Gutiérrez C. 200520050000000000000000   24052005270520050040000000000000000
0000000005151792K9100  952680170000000001Autorizada                                   0100685951500000000000Mónica Gutiérrez C. 200520050000000000000000   21052005230520050030000000000000000
000000000515714019100  154540580000000001Autorizada                                   0100646777560000000000Valenzuela Oyarce Ro060620050000000000000000   06062005240620050190000000000000000
000000000515714019100  154541680000000001Autorizada                                   0100646777560000000000Valenzuela Oyarce Ro240620050000000000000000   25062005240720050300000000000000000
000000000515714019100  159882070000000001Autorizada                                   0100646777560000000000VALENZUE,A OYARCE RO090520050000000000000000   11052005040620050250000000000000000
000000000515714019100  166727390000000001Autorizada                                   0100646777560000000000Valenzuela Oyarce Ro090820050000000000000000   09082005290820050210000000000000000
000000000515714019100  162856820000000001Autorizada                                   0100646777560000000000Valenzuela Oyarce Ro220720050000000000000000   25072005080820050150000000000000000
000000000517649199053    2208050000000001Autorizada                                   0100610777900000000000Ugarte Novoa Ernesto190820050000000000000000   20082005260820050070000000000000000
000000000517649199100    2609050000000001Autorizada                                   0100404205170000000000Páez Vera Manuel    230920050000000000000000   24092005041020050110000000000000000
000000000517649199053     409050000000001Autorizada                                   0100404205170000000000Páez Vera Manuel Bor020920050000000000000000   03092005090920050070000000000000000
000000000517649199053    1608050000000001Autorizada                                   0100404205170000000000Páez Vera Manuel    120820050000000000000000   13082005190820050070000000000000000
000000000517649199053      27070000000001Autorizada                                   0100404205170000000000Paez Vera Manuel    220720050000000000000000   23072005290720050070000000000000000
000000000517649199053    1509050000000001Autorizada                                   0100404205170000000000Páez Vera Manuel    140920050000000000000000   15092005230920050090000000000000000
000000000517649199053  517649190000000001Autorizada                                   0100404205170000000000PÁEZ VERA MANUEL    260820050000000000000000   27082005020920050070000000000000000
000000000517649199053    1407050000000001Autorizada                                   0100404205170000000000Páez Vera Manuel    130720050000000000000000   14072005220720050090000000000000000
000000000517649199053    1209050000000001Autorizada                                   0100772879650000000000Feris Astorga Margar090920050000000000000000   10092005140920050050000000000000000
000000000517649199053      11300000000001Autorizada                                   0100404205170000000000Páez Vera Manuel    170620050000000000000000   17062005240620050080000000000000000
000000000517649199053      11310000000001Autorizada                                   0100404205170000000000Páez Vera Manuel    240620050000000000000000   25062005290620050050000000000000000
000000000517649199053   40820050000000001Autorizada                                   0100404205170000000000Paez Vera Manuel    290720050000000000000000   30072005050820050070000000000000000
000000000517649199053  200506300000000001Autorizada                                   0100404205170000000000paez vera manuel    290620050000000000000000   30062005130720050140000000000000000
000000000517649199053   80820050000000001Autorizada                                   0100404205170000000000Páez Vera Manuel    050820050000000000000000   06082005120820050070000000000000000
000000000528136629100  154518180000000001Autorizada                                   0100646130490000000000Venezian Arrieta Ser200620050000000000000000   20062005090720050200000000000000000
000000000529404869100  142474180000000001Autorizada                                   0101272246840000000000Sandoval Martínez An160620050000000000000000   19062005190620050010000000000000000
000000000529404869100  942474180000000001Autorizada                                   0101272246840000000000Sandoval Martínez An160620050000000000000000   16062005180620050030000000000000000
000000000530859979100  144580040000000001Autorizada                                   01004988429K0000000000 Mendoza Gómez Juan 020920050000000000000000   05092005070920050030000000000000000
000000000530859979100  944580040000000001Autorizada                                   01004988429K0000000000Mendoza  Gómez Juan 020920050000000000000000   02092005040920050030000000000000000
000000000532918219100  140626150000000001Autorizada                                   0100792684370000000000Escobar Meneses Maxi090520050000000000000000   08052005220520050150000000000000000
000000000533472319100  142474170000000001Autorizada                                   01004988429K0000000000Mendoza Gómez Juan  020620050000000000000000   05062005050620050010000000000000000
000000000533472319100  956431580000000001Autorizada                                   0100865455940000000000Ponticas  Ceardi  Me010920050000000000000000   01092005020920050020000000000000000
000000000533472319100  941487390000000001Autorizada                                   0100865455940000000000Ponticas Ceardi Meli200620050000000000000000   17062005190620050030000000000000000
000000000533472319100  141487430000000001Autorizada                                   0100865455940000000000Ponticas Ceardi Meli230620050000000000000000   24062005270620050040000000000000000
000000000533472319100  942474170000000001Autorizada                                   01004988429K0000000000Mendoza Gómez Juan  020620050000000000000000   02062005040620050030000000000000000
000000000533472319100  954533990000000001Autorizada                                   0100590297540000000000Faccilongo Forno Enz200920050000000000000000   19092005210920050030000000000000000
000000000533472319100  141487390000000001Autorizada                                   0100865455940000000000Ponticas Ceardi Meli200620050000000000000000   20062005230620050040000000000000000
000000000533472319100  139272410000000001Autorizada                                   0100670576000000000000Pizarro Sule Carlos 060720050000000000000000   06072005160720050110000000000000000
000000000535338929050    3008050000000001Autorizada                                   0100821253370000000000Roberto Ed Montegu S220820050000000000000000   23082005120920050210000000000000000
000000000535338929050    1709050000000001Autorizada                                   0100821253370000000000Ed Montegu Soler Rob120920050000000000000000   13092005061020050240000000000000000
000000000535338929050    2005040000000001Autorizada                                   0100404205170000000000paez vera manuel    010720050000000000000000   02072005060720050050000000000000000
000000000535338929050    2005010000000001Autorizada                                   0100404205170000000000paez vera manuel    230620050000000000000000   23062005280620050060000000000000000
000000000535338929050    2005030000000001Autorizada                                   0100404205170000000000paez vera manuel    280620050000000000000000   29062005010720050030000000000000000
000000000535338929050  200507040000000001Autorizada                                   0100404205170000000000paez vera manuel  bo270720050000000000000000   28072005010820050050000000000000000
000000000535338929050    1808050000000001Autorizada                                   0100821253370000000000Roberto Ed Montegu S110820050000000000000000   09082005220820050140000000000000000
000000000535338929050  200507010000000001Autorizada                                   0100772879650000000000feris astorga margar070720050000000000000000   07072005110720050050000000000000000
000000000535338929050  200507020000000001Autorizada                                   0100404205170000000000PAEZ VERA MANUEL    120720050000000000000000   12072005200720050090000000000000000
000000000535338929050  200507030000000001Autorizada                                   0100404205170000000000PAEZ VERA MANUEL    200720050000000000000000   21072005270720050070000000000000000
000000000535338929050   70820050000000001Autorizada                                   0100404205170000000000Páez Vera Manuel    030820050000000000000000   02082005080820050070000000000000000
000000000535464989100  942474350000000001Autorizada                                   01004988429K0000000000 Mendoza Gómez Juan 120720050000000000000000   12072005140720050030000000000000000
000000000535464989100  142474350000000001Autorizada                                   01004988429K0000000000 Mendoza Gómez Juan 120720050000000000000000   15072005150720050010000000000000000
000000000540644709100  153721050000000001Autorizada                                   0100504789710000000000Orlandi Jorquera Lui090920050000000000000000   09092005081020050300000000000000000
000000000540644709100  142153150000000001Autorizada                                   0100504789710000000000Orlandi Valenzuela L050520050000000000000000   11052005090620050300000000000000000
000000000540644709100  142153370000000001Autorizada                                   0100504789710000000000Orlandi Jorquera Lui100620050000000000000000   10062005090720050300000000000000000
000000000540644709100  147059690000000001Autorizada                                   0100504789710000000000orlandi jorquera lui200720050000000000000000   11072005090820050300000000000000000
000000000540644709100  147059790000000001Autorizada                                   0100504789710000000000Orlandi Jorquera Lui090820050000000000000000   10082005080920050300000000000000000
000000000541782479100  159741220000000001Autorizada                                   0100657786450000000000Serantes Cristal Jor120920050000000000000000   12092005111020050300000000000000000
000000000541782479100  154579510000000001Autorizada                                   0100657786450000000000Serantes Cristal Jor140620050000000000000000   15062005140720050300000000000000000
000000000541782479100  157321150000000001Autorizada                                   0100657786450000000000Serantes Cristal Jor130820050000000000000000   14082005110920050290000000000000000
000000000541782479100  154515090000000001Autorizada                                   0100657786450000000000Serantes  Cristal Jo310520050000000000000000   31052005140620050150000000000000000
000000000541782479100  156395790000000001Autorizada                                   0100657786450000000000Serantes Cristal Jor140720050000000000000000   15072005130820050300000000000000000
000000000541782479100  150828380000000001Autorizada                                   0100657786450000000000Serantes Cristal Jor160520050000000000000000   16052005300520050150000000000000000
000000000541782479100  152665540000000001Autorizada                                   0100657786450000000000Serantes Cristal Jor290420050000000000000000   01052005150520050150000000000000000
000000000542716979100  162855190000000001Autorizada                                   0100685672110000000000Muñoz Bulher Sergio 130720050000000000000000   14072005120820050300000000000000000
000000000542716979100  166771020000000001Autorizada                                   0100685672110000000000Muñoz Buhler Sergio 120820050000000000000000   13082005110920050300000000000000000
000000000542716979100  166772910000000001Autorizada                                   0100685672110000000000Muñoz  Bulher Sergio120920050000000000000000   12092005260920050150000000000000000
000000000544597699100  142452840000000001Autorizada                                   0100404205170000000000Páez Vera Doris     250520050000000000000000   25052005050620050120000000000000000
000000000545969609100  942474410000000001Autorizada                                   01004988429K0000000000Mendoza Gómez Juan  250720050000000000000000   25072005270720050030000000000000000
000000000545969609100  142474410000000001Autorizada                                   01004988429K0000000000Mendoza Gómez Juan  250720050000000000000000   28072005290720050020000000000000000
000000000546109479100  128483930000000001Autorizada                                   0100248270460000000000Clemente Meneses Rub300520050000000000000000   01062005300620050300000000000000000
000000000546109479100  144303460000000001Autorizada                                   0100248270460000000000Meneses Rubianez Cle290420050000000000000000   02052005310520050300000000000000000
000000000546378459100  941453290000000001Autorizada                                   01010684822K0000000000Berrios Muñoz Aldo  130820050000000000000000   15082005170820050030000000000000000
000000000546378459100  150763930000000001Autorizada                                   0100857630160000000000Witto Arensten Guill160820050000000000000000   18082005230820050060000000000000000
000000000546378459100  150763990000000001Autorizada                                   0100857630160000000000Witto Aretsen Guille230820050000000000000000   24082005070920050150000000000000000
000000000569751609051     111000000000001Autorizada                                   0101272246840000000000Andrés Sandoval Mart030520050000000000000000   01052005080520050080000000000000000
000000000569751609051  200504020000000001Autorizada                                   0101272246840000000000DR. A. SANDOVAL     310520050000000000000000   09052005130520050050000000000000000
000000000569751609051  200504030000000001Autorizada                                   0101272246840000000000DR. A. SANDOVAL     310520050000000000000000   14052005230520050100000000000000000
000000000572194089100  147222360000000001Autorizada                                   0100590297540000000000FACCILONGO FORNO ENZ190720050000000000000000   29062005200720050220000000000000000
000000000572729299100  162832570000000001Autorizada                                   0100646777560000000000Valenzuela Oyarce Ro010820050000000000000000   04082005280820050250000000000000000
000000000572729299100  162855650000000001Autorizada                                   0100646777560000000000Valenzuela Oyarce Ro040720050000000000000000   05072005030820050300000000000000000
000000000572729299100  166773200000000001Autorizada                                   0100646777560000000000Valenzuela Oyarce Ro260820050000000000000000   29082005220920050250000000000000000
000000000580162769100  947137550000000001Autorizada                                   0100873045820000000000González Infante Ram020620050000000000000000   30052005010620050030000000000000000
000000000580162769100  147137570000000001Autorizada                                   0100873045820000000000GONZALEZ INFANTE RAM060620050000000000000000   07062005100620050040000000000000000
000000000580162769100  147137550000000001Autorizada                                   0100873045820000000000González Infante Ram020620050000000000000000   02062005060620050050000000000000000
000000000580760589100  154493220000000001Autorizada                                   0100621871150000000000Bórquez Muñoz Patric240520050000000000000000   24052005070620050150000000000000000
000000000590131739100  942474420000000001Autorizada                                   01004988429K0000000000Mendoza Gómez Juan  280720050000000000000000   28072005300720050030000000000000000
000000000590131739100  142474420000000001Autorizada                                   01004988429K0000000000Juan Mendoza Gómez  280720050000000000000000   31072005020820050030000000000000000
000000000591214729100  152700640000000001Autorizada                                   0101078122610000000000Covarrubias G- Rodri020620050000000000000000   07062005060720050300000000000000000
000000000591214729100  142447950000000001Autorizada                                   01008435712K0000000000Jiménez Rojas Gab ri270520050000000000000000   23052005060620050150000000000000000
000000000595648039100  147222430000000001Autorizada                                   0100590297540000000000faccilongo forno enz200720050000000000000000   08072005210720050140000000000000000
000000000599069259100  968453110000000001Autorizada                                   01004870753K0000000000Carvajal Gonzájez Ni060920050000000000000000   07092005090920050030000000000000000
000000000599069259100  159880780000000001Autorizada                                   0100646777560000000000Valenzuela Oyarce Ro160520050000000000000000   17052005280520050120000000000000000
000000000599069259100  168453110000000001Autorizada                                   01004870753K0000000000Carvajal González Ni060920050000000000000000   10092005100920050010000000000000000
0000000006058401K9100  166626640000000001Autorizada                                   01008350613K0000000000Parada Pozas Leopold300820050000000000000000   31082005290920050300000000000000000
0000000006058401K9100  166770980000000001Autorizada                                   01008350613K0000000000Parada Pozas Leopold160820050000000000000000   16082005300820050150000000000000000
000000000608852069100  157290100000000001Autorizada                                   0101451145000000000000Sánchez Villalobos V140920050000000000000000   14092005260920050130000000000000000
000000000613826669100  949827090000000001Autorizada                                   0100835994720000000000Irarrazabl García Ge200920050000000000000000   20092005220920050030000000000000000
000000000613826669100  152633450000000001Autorizada                                   0101183373520000000000Uribe Origons José  070620050000000000000000   08062005220620050150000000000000000
000000000613826669100  149827090000000001Autorizada                                   0100835994720000000000Irarrazabal García G200920050000000000000000   23092005250920050030000000000000000
000000000615830099100  152710900000000001Autorizada                                   0101471468840000000000Claudia Pinzón      110920050000000000000000   11092005250920050150000000000000000
000000000615830099100  152710880000000001Autorizada                                   0101471467870000000000Cllaudia Pinzón     270820050000000000000000   27082005100920050150000000000000000
000000000615830099100  151644310000000001Autorizada                                   0100000000190000000000Pizón González Claud280720050000000000000000   28072005260820050300000000000000000
000000000617050909051  147502000000000001Autorizada                                   0100772879650000000000Feris Astorga Margar120520050000000000000000   15052005290520050150000000000000000
000000000617886389100  149337490000000001Autorizada                                   0101440000560000000000Rojas Rojas Ricardo 210620050000000000000000   21062005040720050140000000000000000
000000000630377109100  141484750000000001Autorizada                                   0100772280550000000000Alburquerque Fuschin200520050000000000000000   22052005200620050300000000000000000
000000000630377109100  141484800000000001Autorizada                                   0100772280550000000000Alburquerque Fuschin200620050000000000000000   21062005200720050300000000000000000
000000000630377109100  141484820000000001Autorizada                                   0100772280550000000000alburquerque fuschin200720050000000000000000   21072005190820050300000000000000000
000000000630377109100  141484830000000001Autorizada                                   0100772280550000000000Alburquerque Fuschin190820050000000000000000   20082005180920050300000000000000000
000000000630377109100  141484870000000001Autorizada                                   0100772280550000000000Alburquerque Fuschin160920050000000000000000   19092005181020050300000000000000000
000000000639934849100  152729680000000001Autorizada                                   0100519879930000000000Trujillo C. Claudioi050520050000000000000000   07052005080520050020000000000000000
000000000639934849100  942474310000000001Autorizada                                   0101272246840000000000Sandoval Martínez An040720050000000000000000   02072005040720050030000000000000000
000000000639934849100  154550590000000001Autorizada                                   0100550058770000000000MENDEZ GUZMAN JULIO 210720050000000000000000   22072005250720050040000000000000000
000000000639934849100  154550600000000001Autorizada                                   0100550058770000000000mendez guzman julio 250720050000000000000000   26072005310720050060000000000000000
000000000639934849100  154550760000000001Autorizada                                   0100550058770000000000Méndez Guzmán Julio 030820050000000000000000   01082005070820050070000000000000000
000000000639934849100  952729680000000001Autorizada                                   0100519879930000000000Trujillo C. Claudio 050520050000000000000000   04052005060520050030000000000000000
000000000639934849100  954550590000000001Autorizada                                   0100550058770000000000MENDEZ GUZMAN JULIO 210720050000000000000000   19072005210720050030000000000000000
000000000639934849100  142474310000000001Autorizada                                   0101272246840000000000Sandoval Martínez An040720050000000000000000   05072005070720050030000000000000000
000000000639971969100  956353570000000001Autorizada                                   0100509866080000000000AMADOR NAVIA MARIANA180720050000000000000000   19072005210720050030000000000000000
000000000639971969100  156353570000000001Autorizada                                   0100509866080000000000AMADOR NAVIA MARIANA180720050000000000000000   22072005220720050010000000000000000
000000000647705869100  154533820000000001Autorizada                                   0100590297540000000000Faccilongo Forno Enz260820050000000000000000   30082005020920050040000000000000000
000000000647705869100  154533850000000001Autorizada                                   0100590297540000000000Faccilongo Forno Enz010920050000000000000000   03092005080920050060000000000000000
000000000647705869100  954533820000000001Autorizada                                   0100590297540000000000Faccilongo Forno Enz260820050000000000000000   27082005290820050030000000000000000
000000000654554719100  147177550000000001Autorizada                                   01008924272K0000000000Escobar Borie Alvaro080720050000000000000000   08072005120720050050000000000000000
000000000654554719100  947200300000000001Autorizada                                   0100919686300000000000Duk Aravena Carlos  280620050000000000000000   28062005300620050030000000000000000
000000000654554719100  154487720000000001Autorizada                                   01008924272K0000000000Escobar Borie Alvaro010720050000000000000000   01072005070720050070000000000000000
000000000660242969100  148278160000000001Autorizada                                   0100431275860000000000Quiros Varela Jorge 050920050000000000000000   05092005041020050300000000000000000
000000000661189169100  948262910000000001Autorizada                                   0100992250090000000000Eduardo González Tor260620050000000000000000   26062005280620050030000000000000000
000000000677570929100  148302870000000001Autorizada                                   0100659037680000000000Palacios Angelini An150920050000000000000000   14092005031020050200000000000000000
000000000678879139100  156334740000000001Autorizada                                   0100501259200000000000Cossio Hughes Jerman250820050000000000000000   25082005040920050110000000000000000
000000000680527509100  154533450000000001Autorizada                                   0100590297540000000000Faccilongo Forno Enz040720050000000000000000   08072005110720050040000000000000000
000000000680527509100  954533450000000001Autorizada                                   0100590297540000000000Faccilongo Forno Enz040720050000000000000000   05072005070720050030000000000000000
000000000681480229100  144579850000000001Autorizada                                   0101428309810000000000Harire T. Juan Pablo290820050000000000000000   26082005140920050200000000000000000
000000000681480229100  142464230000000001Autorizada                                   0101428309810000000000Juan Pablo Herrera T030820050000000000000000   27072005250820050300000000000000000
000000000683062649100  154533560000000001Autorizada                                   0100590297540000000000 FACCILONGO FORNO EN140720050000000000000000   17072005200720050040000000000000000
000000000683062649100  154533590000000001Autorizada                                   0100590297540000000000FACCILONGO FORNO ENZ210720050000000000000000   21072005250720050050000000000000000
000000000683062649100  954533560000000001Autorizada                                   0100590297540000000000FACCILONGO FORNO ENZ140720050000000000000000   14072005160720050030000000000000000
000000000694122709100  152735000000000001Autorizada                                   0100979865680000000000Giacaman Hasbu  Andr290620050000000000000000   04072005130720050100000000000000000
000000000694122709100  147174220000000001Autorizada                                   0100979865680000000000Giacaman Hasbun Andr140620050000000000000000   14062005030720050200000000000000000
000000000705034259050     112000000000001Autorizada                                   0101272246840000000000Andrés Sandoval Mart030520050000000000000000   01052005080520050080000000000000000
000000000705034259050     100100000000001Autorizada                                   01004988429K0000000000Juan Mendoza Gómez  250520050000000000000000   09052005190520050110000000000000000
000000000705034259050     100110000000001Autorizada                                   01004988429K0000000000Juan Mendoza Gómez  250520050000000000000000   20052005270520050080000000000000000
000000000709982899100  956400960000000001Autorizada                                   0100867027620000000000Barchiesi Ferrari Ar200920050000000000000000   20092005220920050030000000000000000
000000000709982899100  156400960000000001Autorizada                                   0100867027620000000000Barchiesi Ferrari Ar200920050000000000000000   23092005240920050020000000000000000
000000000712317049100  942474360000000001Autorizada                                   01004988429K0000000000Mendoza Gómez Juan  130720050000000000000000   14072005150720050020000000000000000
000000000718186249100  942403520000000001Autorizada                                   0101000313960000000000Bachmann Muñoz Marit090520050000000000000000   09052005110520050030000000000000000
000000000718186249100  142403520000000001Autorizada                                   0101000313960000000000Bachmann Muñoz Marit090520050000000000000000   12052005130520050020000000000000000
0000000007186281K9100  142435740000000001Autorizada                                   0100702156080000000000Gerald Cooper Mac Qu250720050000000000000000   25072005230820050300000000000000000
0000000007186281K9100  156398230000000001Autorizada                                   0100702156080000000000Cooper M. Gerald    120920050000000000000000   13092005121020050300000000000000000
0000000007186281K9100  156398180000000001Autorizada                                   0100702156080000000000Cooper Macqueen Gera220820050000000000000000   24082005120920050200000000000000000
000000000718761609100  942474380000000001Autorizada                                   0101272246840000000000SANDOVAL MARTINEZ AN150720050000000000000000   16072005180720050030000000000000000
000000000718761609100  150739220000000001Autorizada                                   0100482711620000000000ARNERIC ALVAREZ DINK190720050000000000000000   20072005180820050300000000000000000
000000000718761609100  142474380000000001Autorizada                                   0101272246840000000000SANDOVAL MARTINEZ AN150720050000000000000000   19072005190720050010000000000000000
000000000733607499100  942474230000000001Autorizada                                   0101272246840000000000Sandoval Martínez An250620050000000000000000   25062005250620050010000000000000000
000000000742644419100  156390740000000001Autorizada                                   0101437577650000000000Hola Bustamante José080920050000000000000000   12092005250920050140000000000000000
0000000007426445K9100  154533270000000001Autorizada                                   0100590297540000000000Faccilongo Forno Enz160620050000000000000000   19062005220620050040000000000000000
0000000007426445K9100  954533270000000001Autorizada                                   0100590297540000000000Faccilongo Forno Enz160620050000000000000000   16062005180620050030000000000000000
000000000759738969100  154560010000000001Autorizada                                   0100753060080000000000Mac-Lean Allendes Cl060620050000000000000000   06062005170620050120000000000000000
000000000760408269100  959881250000000001Autorizada                                   01008350613K0000000000Parada Pozas Leopold250520050000000000000000   25052005270520050030000000000000000
000000000760408269100  156576950000000001Autorizada                                   01008350613K0000000000Parada Pozas Leopold020620050000000000000000   04062005180620050150000000000000000
000000000760408269100  154541520000000001Autorizada                                   01008350613K0000000000Parada Pozas Leopold200620050000000000000000   19062005180720050300000000000000000
000000000760408269100  159881250000000001Autorizada                                   01008350613K0000000000Parada Pozas Leopold250520050000000000000000   28052005030620050070000000000000000
000000000760408269100  166771760000000001Autorizada                                   01008350613K0000000000Parada Pozas Leopold180820050000000000000000   18082005070920050210000000000000000
000000000760408269100  166772570000000001Autorizada                                   01008350613K0000000000Cabrera Benavides Ma080920050000000000000000   08092005220920050150000000000000000
000000000760408269100  162856570000000001Autorizada                                   01008350613K0000000000parada rozas leopold190720050000000000000000   19072005170820050300000000000000000
000000000763371289100  944580070000000001Autorizada                                   01004988429K0000000000Mendoza Gómez Juan  060920050000000000000000   06092005080920050030000000000000000
0000000007671195K9100  942474300000000001Autorizada                                   01004988429K0000000000Mendoza Gómez Juan  040720050000000000000000   04072005060720050030000000000000000
0000000007671195K9100  150834480000000001Autorizada                                   0100217227900000000000Vidal Alvarez Waldo 060720050000000000000000   07072005170720050110000000000000000
000000000769935569100  937610100000000001Autorizada                                   0101249109510000000000Hernández Tirapegui 210620050000000000000000   22062005240620050030000000000000000
000000000769935569100  150817950000000001Autorizada                                   01006434661K0000000000Pérez Orellana M.   270720050000000000000000   31072005030820050040000000000000000
000000000769935569100  950817950000000001Autorizada                                   01006434661K0000000000Pérez Orellana Maria270720050000000000000000   28072005300720050030000000000000000
000000000776673189100  154516990000000001Autorizada                                   0100520761450000000000Fajardo Bravo Sergio080820050000000000000000   09082005090820050010000000000000000
000000000776673189100  154516790000000001Autorizada                                   0100520761450000000000FAJARDO BRAVO SERGIO190720050000000000000000   21072005250720050050000000000000000
000000000776673189100  154516840000000001Autorizada                                   0100520761450000000000Fajardo Bravo José  260720050000000000000000   26072005020820050080000000000000000
000000000776673189100  954516990000000001Autorizada                                   0100520761450000000000Fajardo Bravo Sergio080820050000000000000000   06082005080820050030000000000000000
000000000776673189100  954516790000000001Autorizada                                   0100520761450000000000FAJARDO BRAVO SERGIO190720050000000000000000   18072005200720050030000000000000000
000000000776673189100  942474400000000001Autorizada                                   0101272246840000000000SANDOVAL MARTINEZ AN190720050000000000000000   17072005170720050010000000000000000
000000000776673189100  157308520000000001Autorizada                                   0100520761450000000000FAJARDO BRAVO SERGIO100820050000000000000000   10082005190820050100000000000000000
000000000776673189100  156402610000000001Autorizada                                   0100511386350000000000Springmuller G . Raú180820050000000000000000   21082005040920050150000000000000000
000000000776673189100  156402770000000001Autorizada                                   0100511386350000000000Springmuller G. Raúl220920050000000000000000   20092005041020050150000000000000000
000000000776673189100  156402680000000001Autorizada                                   0100511386350000000000Spingmuller G. Raúl 010920050000000000000000   05092005190920050150000000000000000
000000000789967579100  148359730000000001Autorizada                                   0100772879650000000000Feris Astorga Margar220820050000000000000000   23082005060920050150000000000000000
000000000789967579100  149757560000000001Autorizada                                   0100772879650000000000FERIS ASTORGA MARGAR100820050000000000000000   11082005220820050120000000000000000
000000000791298799100  942474480000000001Autorizada                                   01004988429K0000000000Mendoza Gòmez Juan  100820050000000000000000   10082005110820050020000000000000000
000000000792862739100  161926310000000001Autorizada                                   0101460407130000000000Levallos Valdés Gina280620050000000000000000   28062005120720050150000000000000000
000000000794260089100  159735520000000001Autorizada                                   0100974857980000000000Isla Alonso Oscar   230820050000000000000000   24082005260820050030000000000000000
000000000794260089100  957285160000000001Autorizada                                   0100974857980000000000Isla Alonso Oscar   040820050000000000000000   04082005060820050030000000000000000
000000000794260089100  157285330000000001Autorizada                                   0100974857980000000000Isla Alonso Oscar   120820050000000000000000   12082005170820050060000000000000000
000000000794260089100  157285450000000001Autorizada                                   0100974857980000000000Isla Alonso Oscar   180820050000000000000000   18082005230820050060000000000000000
000000000794260089100  157285160000000001Autorizada                                   0100974857980000000000Isla Alonso Oscar   040820050000000000000000   07082005110820050050000000000000000
000000000794260089100  156348790000000001Autorizada                                   0100942719830000000000Fernández Vargas Eri270820050000000000000000   27082005250920050300000000000000000
000000000797986069100  917045980000000001Autorizada                                   0100717876480000000000Muñoz Sepúlveda Carl040820050000000000000000   04082005060820050030000000000000000
000000000802359849100  149759310000000001Autorizada                                   0100886671900000000000Schiefelbein Grossi 240820050000000000000000   24082005040920050120000000000000000
000000000802359849100  109721410000000001Autorizada                                   0100886671900000000000Schiefelbein Grossi 310820050000000000000000   05092005140920050100000000000000000
000000000807129879100  148346220000000001Autorizada                                   0101444849830000000000Van Der Stam Herman 120820050000000000000000   15082005180820050040000000000000000
000000000807129879100  948346220000000001Autorizada                                   0101444849830000000000Van Der Stam Herman 120820050000000000000000   12082005140820050030000000000000000
000000000807129879100  147200920000000001Autorizada                                   0102168576070000000000Pérez Jiménez Jorge 010720050000000000000000   04072005060720050030000000000000000
000000000807129879100  947200920000000001Autorizada                                   0102168576070000000000Pérez Jiménez Jorge 010720050000000000000000   01072005030720050030000000000000000
000000000814153829100  940643660000000001Autorizada                                   01010526268K0000000000Hernández Ramírez Ma140620050000000000000000   15062005170620050030000000000000000
000000000816204079100  939268000000000001Autorizada                                   0101272246840000000000Sandoval Martínez An100520050000000000000000   10052005120520050030000000000000000
000000000816204079100  142474010000000001Autorizada                                   0101272246840000000000Sandoval Martínez An160520050000000000000000   17052005210520050050000000000000000
000000000816204079100  139268000000000001Autorizada                                   0101272246840000000000Sandoval Martínez An100520050000000000000000   13052005160520050040000000000000000
000000000828499399100  956463540000000001Autorizada                                   01007164183K0000000000pavie gallegos juana210720050000000000000000   20072005220720050030000000000000000
000000000828499399100  156463540000000001Autorizada                                   01007164183K0000000000pavie gallegos juana210720050000000000000000   23072005290720050070000000000000000
000000000828499399100  156463650000000001Autorizada                                   01007164183K0000000000Pavie Gallegos Juana290720050000000000000000   30072005050820050070000000000000000
000000000828499399100  156463860000000001Autorizada                                   01007164183K0000000000Pavie Gallegos Juana050820050000000000000000   06082005120820050070000000000000000
000000000830282709100  159881370000000001Autorizada                                   01008350613K0000000000Parada Pozas Leopold270520050000000000000000   29052005120620050150000000000000000
000000000834727829051     907050000000001Autorizada                                   0100404205170000000000Páez Vera Manuel    060720050000000000000000   07072005080720050020000000000000000
000000000834727829051    2005060000000001Autorizada                                   0100404205170000000000paez vera  manuel   010720050000000000000000   01072005060720050060000000000000000
000000000839432039100  942474430000000001Autorizada                                   0101272246840000000000Sandoval Martínez An030820050000000000000000   04082005060820050030000000000000000
000000000839432039100  142474470000000001Autorizada                                   0101272246840000000000Sandoval Martínez An090820050000000000000000   11082005170820050070000000000000000
000000000839432039100  152704250000000001Autorizada                                   0100520195400000000000Maturana Bascope Ern020920050000000000000000   02092005080920050070000000000000000
000000000839432039100  162835720000000001Autorizada                                   0100729949490000000000Coghlan De Rosa Jorg200820050000000000000000   19082005010920050140000000000000000
000000000839432039100  142474430000000001Autorizada                                   0101272246840000000000Sandoval Martínez An030820050000000000000000   07082005100820050040000000000000000
000000000839736259100  148317880000000001Autorizada                                   0101011344580000000000Fuentes Navarrete Ro060820050000000000000000   06082005200820050150000000000000000
000000000839736259100  149786940000000001Autorizada                                   0100908746080000000000Jackson Salinas Anth190820050000000000000000   21082005300820050100000000000000000
000000000843356579100  939267990000000001Autorizada                                   0101031941130000000000Carvacho Vargas Maur080520050000000000000000   08052005080520050010000000000000000
000000000848243729100  942474260000000001Autorizada                                   0101272246840000000000Sandoval Martínez An280620050000000000000000   28062005300620050030000000000000000
000000000848243729100  142474260000000001Autorizada                                   0101272246840000000000Sandoval Martínez An280620050000000000000000   01072005010720050010000000000000000
000000000852884319100  944580110000000001Autorizada                                   01004988429K0000000000Mendoza Gómez Juan  200920050000000000000000   20092005200920050010000000000000000
000000000856996019100  962883720000000001Autorizada                                   0100626620770000000000Telchelmann S. Luis 310820050000000000000000   31082005020920050030000000000000000
000000000856996019100  162883720000000001Autorizada                                   0100626620770000000000Telchelmann S. Luis 310820050000000000000000   03092005050920050030000000000000000
000000000856996019100  149809590000000001Autorizada                                   0101084846160000000000Carrasco Calderón Ya060920050000000000000000   06092005120920050070000000000000000
000000000860867009100  159780100000000001Autorizada                                   0100386672030000000000Nagel Vera Waldo    090920050000000000000000   09092005150920050070000000000000000
000000000860867009100  159780430000000001Autorizada                                   0100386672030000000000Nagel Vera Waldo    230920050000000000000000   23092005290920050070000000000000000
000000000860867009100  159780190000000001Autorizada                                   0100386672030000000000Nagel Vera Waldo    150920050000000000000000   16092005220920050070000000000000000
000000000860867009100  144580050000000001Autorizada                                   01004988429K0000000000Mendoza Gómez Juan  050920050000000000000000   07092005080920050020000000000000000
000000000860867009100  944580050000000001Autorizada                                   01004988429K0000000000Mendoza Gómez Juan  050920050000000000000000   04092005060920050030000000000000000
000000000874519929100  148348250000000001Autorizada                                   0100604163380000000000Wegmann M. Enrique  050820050000000000000000   06082005040920050300000000000000000
000000000874519929100  142477070000000001Autorizada                                   0100952275110000000000Rojas Alejandro     040720050000000000000000   08072005110720050040000000000000000
000000000874519929100  142477210000000001Autorizada                                   0100952275110000000000Rojas Valdenegro Ale110720050000000000000000   12072005210720050100000000000000000
000000000874519929100  142477420000000001Autorizada                                   0100952275110000000000rojas valdenegro ale200720050000000000000000   22072005050820050150000000000000000
000000000874519929100  942477070000000001Autorizada                                   0100952275110000000000Rojas Alejandro     040720050000000000000000   05072005070720050030000000000000000
000000000874519929100  149799200000000001Autorizada                                   0100604163380000000000Wegmann M. Enrique  020920050000000000000000   05092005041020050300000000000000000
000000000875930029100  942474020000000001Autorizada                                   0101272246840000000000Sandoval Martínez An160520050000000000000000   16052005180520050030000000000000000
000000000875930029100  142474020000000001Autorizada                                   0101272246840000000000Sandoval Martínez An160520050000000000000000   19052005190520050010000000000000000
000000000887460159050  150920050000000001Autorizada                                   0100404205170000000000paez vera manuel    130920050000000000000000   14092005150920050020000000000000000
000000000887460159050    2308050000000001Autorizada                                   0101201507150000000000Pestan Schafer Mauri220820050000000000000000   19082005290820050110000000000000000
000000000887460159050     809050000000001Autorizada                                   0100404205170000000000Páez Vera Manuel    070920050000000000000000   08092005130920050060000000000000000
000000000887460159050    2808050000000001Autorizada                                   0100404205170000000000Páez  Vera Manuel B.290820050000000000000000   30082005020920050040000000000000000
000000000887460159050     509050000000001Autorizada                                   0100404205170000000000Páez Vera Manuel    020920050000000000000000   03092005070920050050000000000000000
000000000887460159100  155089230000000001Autorizada                                   0100404205170000000000Páez Vera Manuel    150920050000000000000000   19082005160920050290000000000000000
000000000892083439100  944580010000000001Autorizada                                   0101272246840000000000Sandoval Martínez An230820050000000000000000   20082005210820050020000000000000000
000000000904891439100  959897300000000001Autorizada                                   0100728779260000000000Fuentes Fernández Gl050920050000000000000000   03092005050920050030000000000000000
000000000904891439100  159897300000000001Autorizada                                   0100728779260000000000Fuentes Fernández Gl050920050000000000000000   06092005070920050020000000000000000
000000000907439969100  166772630000000001Autorizada                                   01008350613K0000000000Parada Pozas Leopold060920050000000000000000   06092005051020050300000000000000000
000000000910812299100  154540900000000001Autorizada                                   0100589225950000000000Rossel Fernández Jos100620050000000000000000   14062005130720050300000000000000000
000000000910812299100  159880800000000001Autorizada                                   0100589225950000000000Rossel Fernández Jos160520050000000000000000   15052005130620050300000000000000000
000000000910812299100  166770780000000001Autorizada                                   0100589225950000000000Rosell Fernández Jos120820050000000000000000   13082005110920050300000000000000000
000000000910812299100  162856010000000001Autorizada                                   0100000000190000000000Rossel Fernández Jos110720050000000000000000   14072005120820050300000000000000000
000000000910812299100  166772880000000001Autorizada                                   0100589225950000000000Rossel Fernández Jos120920050000000000000000   12092005111020050300000000000000000
000000000919964219100  149308090000000001Autorizada                                   0100429741960000000000MARTICIAN SOTO GUILL140720050000000000000000   14072005280720050150000000000000000
000000000919964219100  149308150000000001Autorizada                                   0100429741960000000000Mac Millan Soto Guil280720050000000000000000   29072005120820050150000000000000000
000000000928612609100  956425730000000001Autorizada                                   0100928612600000000000Abde Carvajal  Jorge050920050000000000000000   03092005050920050030000000000000000
000000000928612609100  956424030000000001Autorizada                                   0100870285850000000000Abde Carvajal Jorge 010820050000000000000000   31072005020820050030000000000000000
000000000928612609100  156425730000000001Autorizada                                   0100928612600000000000Abde Carvajal Jorge 050920050000000000000000   06092005070920050020000000000000000
000000000932902329100  942474190000000001Autorizada                                   01004988429K0000000000Mendoza Gómez  Juan 170620050000000000000000   17062005190620050030000000000000000
000000000937024179100  128643130000000001Autorizada                                   0100846535000000000000Giannini Tassara Osv160520050000000000000000   16052005300520050150000000000000000
000000000942315239100  132922870000000001Autorizada                                   0100938362000000000000Novik Assael Victori160620050000000000000000   17062005280620050120000000000000000
000000000942965289100  941453350000000001Autorizada                                   01010684822K0000000000Berrios Muñoz Aldo  230920050000000000000000   24092005260920050030000000000000000
000000000942965289100  141453350000000001Autorizada                                   01010684822K0000000000Berrios Muñoz Aldo  230920050000000000000000   27092005300920050040000000000000000
000000000943557379100  142494650000000001Autorizada                                   0100952275110000000000Rojas Valdenegro Ale020520050000000000000000   01052005290620050600000000000000000
000000000943557379100  142493510000000001Autorizada                                   0109451146730000000000Oscar Verdugo M.    300620050000000000000000   30062005080820050400000000000000000
000000000946645949100  155089350000000001Autorizada                                   0100590297540000000000Faccilongo Forno Enz200920050000000000000000   24082005200920050280000000000000000
000000000951581969100  148359590000000001Autorizada                                   01007226231K0000000000Fernández Palomino G180820050000000000000000   02082005190820050180000000000000000
000000000951581969051    2005020000000001Autorizada                                   01008350613K0000000000dr. l. parada       160520050000000000000000   10052005160520050070000000000000000
000000000951581969100  159780350000000001Autorizada                                   0100386672030000000000Nagel Vera Waldo    210920050000000000000000   21092005230920050030000000000000000
000000000951581969100  159780120000000001Autorizada                                   0100386672030000000000Nagel Vera Waldo    120920050000000000000000   13092005200920050080000000000000000
000000000951581969051     100120000000001Autorizada                                   01008350613K0000000000Leopoldo Parada Poza180520050000000000000000   17052005260520050100000000000000000
000000000951581969100  156436490000000001Autorizada                                   0100386672030000000000Nagel Vera Waldo    050920050000000000000000   06092005120920050070000000000000000
000000000951581969100  156436260000000001Autorizada                                   0100386672030000000000Nagel V era Waldo   260820050000000000000000   27082005050920050100000000000000000
000000000951581969100  156436120000000001Autorizada                                   0100386672030000000000Nagel Vera Waldo    190820050000000000000000   20082005260820050070000000000000000
000000000956159619100  142474130000000001Autorizada                                   0101272246840000000000Sandoval Martínez An290520050000000000000000   01062005040620050040000000000000000
000000000956159619100  941453300000000001Autorizada                                   01010684822K0000000000Berrios Muñoz Aldo  130820050000000000000000   13082005150820050030000000000000000
000000000956159619100  942474130000000001Autorizada                                   0101272246840000000000Sandoval Martínez An290520050000000000000000   29052005310520050030000000000000000
000000000956159619100  944580080000000001Autorizada                                   01004988429K0000000000Mendoza Gómez Juan  110920050000000000000000   11092005110920050010000000000000000
000000000956159619100  141453300000000001Autorizada                                   01010684822K0000000000Berrios Muñoz Aldo  130820050000000000000000   16082005170820050020000000000000000
000000000956159619100  152648470000000001Autorizada                                   0100779732060000000000Ibieta Ramírez Marce020620050000000000000000   05062005190620050150000000000000000
000000000956326619100  100131420000000001Autorizada                                   0100681816660000000000Zahar Larach Mónica 160620050000000000000000   16062005300620050150000000000000000
000000000956326619100  100131440000000001Autorizada                                   0100681816660000000000Zahar Larach Mónica 010720050000000000000000   01072005100720050100000000000000000
000000000956326619100  100131460000000001Autorizada                                   0100681816660000000000Zahar Larach Mónica 080720050000000000000000   11072005200720050100000000000000000
000000000970545099100  148355060000000001Autorizada                                   0100580132420000000000Hernández Rodier Max140920050000000000000000   14092005160920050030000000000000000
000000000970545099100  109728800000000001Autorizada                                   0100580132420000000000Hernández Rodier Max070920050000000000000000   10092005130920050040000000000000000
000000000970545099100   95081240000000001Autorizada                                   0100958221850000000000ORREGO DIAZ ALVARO  170720050000000000000000   17072005180720050020000000000000000
000000000970545099100  909728800000000001Autorizada                                   0100580132420000000000Hernández Rodier Max070920050000000000000000   07092005090920050030000000000000000
000000000970545099100  149798860000000001Autorizada                                   0100580132420000000000Hernández Rodier Max200920050000000000000000   17092005170920050010000000000000000
000000000977553969100  144578070000000001Autorizada                                   0100779732060000000000Ibieta Ramírez Marce100520050000000000000000   13052005240520050120000000000000000
000000000977553969100  142474080000000001Autorizada                                   01004988429K0000000000Mendoza Gómez Juan  250520050000000000000000   26052005060620050120000000000000000
000000000983638319100  942474100000000001Autorizada                                   0101272246840000000000Sandoval Martínez An270520050000000000000000   27052005290520050030000000000000000
000000000983638319100  957327160000000001Autorizada                                   01008435712K0000000000Jiménez Rojas Gabrie240920050000000000000000   24092005260920050030000000000000000
000000000983638319100  142474100000000001Autorizada                                   0101272246840000000000Sandoval Martínez An270520050000000000000000   30052005010620050030000000000000000
0000000009839124K9100  954477790000000001Autorizada                                   01007081739K0000000000Fuster Saldías Franc010820050000000000000000   02082005040820050030000000000000000
0000000009839124K9100  154477830000000001Autorizada                                   01007081739K0000000000Fuster Saldias Franc050820050000000000000000   05082005070820050030000000000000000
000000000984897469050     505050000000001Autorizada                                   0100000000190000000000Juan Mendoza Gómez  220620050000000000000000   10062005240620050150000000000000000
000000000984897469050     114000000000001Autorizada                                   01004988429K0000000000 Juan Mendoza Gómez 030520050000000000000000   01052005150520050150000000000000000
000000000986012289100  162835740000000001Autorizada                                   0100729949490000000000Coghlan De Rosa Jorg200820050000000000000000   19082005260820050080000000000000000
000000000986012289100  942474490000000001Autorizada                                   0101272246840000000000Sandoval Martínez An160820050000000000000000   16082005180820050030000000000000000
000000000986012289100  942474320000000001Autorizada                                   0101272246840000000000Sandoval Martínez An090720050000000000000000   09072005110720050030000000000000000
000000000986012289100  149113670000000001Autorizada                                   0100890861160000000000Verdejo Lourido Ulis260820050000000000000000   27082005020920050070000000000000000
000000000986012289100  142474320000000001Autorizada                                   0101272246840000000000Sandoval Martínez An090720050000000000000000   12072005120720050010000000000000000
000000000994413999100  125319280000000001Autorizada                                   01003418884K0000000000Reyes Cruz Patricio 060820050000000000000000   06082005120820050070000000000000000
000000000994413999100  152647460000000001Autorizada                                   0100626095670000000000IDIAQUEZ C. JUAN    180720050000000000000000   18072005290720050120000000000000000
000000000994413999100  156468060000000001Autorizada                                   0100626095670000000000Idiaquez Cabezas Jua300720050000000000000000   30072005050820050070000000000000000
000000001000726619100  152693760000000001Autorizada                                   0101163874840000000000Hernández Tirapegui 280720050000000000000000   29072005270820050300000000000000000
000000001000726619100  152693620000000001Autorizada                                   0101163874840000000000Hernández Tirapegui 290620050000000000000000   29062005280720050300000000000000000
000000001000726619100  156348750000000001Autorizada                                   0109427719830000000000Fernández Vargas Eri260820050000000000000000   28082005260920050300000000000000000
000000001010388239100  957321140000000001Autorizada                                   0100657786450000000000Serantes Cristal Jor130820050000000000000000   13082005150820050030000000000000000
000000001010388239100  157321380000000001Autorizada                                   0100657786450000000000Serantes Cristal Jor200820050000000000000000   20082005020920050140000000000000000
000000001010388239100  157321140000000001Autorizada                                   0100657786450000000000Serantes Cristal Jor130820050000000000000000   16082005190820050040000000000000000
000000001013803789100  959759220000000001Autorizada                                   0101444849830000000000Van Der Stam Herman 060920050000000000000000   06092005080920050030000000000000000
000000001015112439100  942474210000000001Autorizada                                   0101272246840000000000SANDOVAL MARTINEZ AN170620050000000000000000   18062005200620050030000000000000000
000000001015112439100  142474210000000001Autorizada                                   0101272246840000000000Sandoval Martínez An170620050000000000000000   21062005220620050020000000000000000
000000001017757129100  942474440000000001Autorizada                                   0101272246840000000000Sandoval Martínez An030820050000000000000000   03082005050820050030000000000000000
000000001017757129100  142474440000000001Autorizada                                   0101272246840000000000Sandoval Martínez An030820050000000000000000   06082005070820050020000000000000000
000000001019118299100  156723670000000001Autorizada                                   0100450952150000000000Desmond Abarca Migue090520050000000000000000   12052005130520050020000000000000000
000000001019118299100  956723670000000001Autorizada                                   0100450952150000000000Desmond Abarca Migue090520050000000000000000   09052005110520050030000000000000000
000000001026950979100  149105370000000001Autorizada                                   01002802293K0000000000LEYTON CONCHA ORLAND260520050000000000000000   27052005100620050150000000000000000
000000001026950979100  149105460000000001Autorizada                                   01002802293K0000000000Leyton Concha Orland100620050000000000000000   11062005200620050100000000000000000
000000001026950979100  106292290000000001Autorizada                                   0101453252500000000000Bermeo Sánchez Jaime280620050000000000000000   21062005240620050040000000000000000
000000001026950979100  106292300000000001Autorizada                                   0101453252500000000000Bermeo Sánchez Jaime040720050000000000000000   02072005080720050070000000000000000
000000001026950979100  139272370000000001Autorizada                                   0101453252500000000000Bermeo Sánchez Jaime250620050000000000000000   25062005010720050070000000000000000
0000000010391972K9100  147203980000000001Autorizada                                   0101248368240000000000SFEIR SFEIR REGIE   180720050000000000000000   21072005230720050030000000000000000
0000000010391972K9100  947203980000000001Autorizada                                   0101248368240000000000SFEIR SFEIR REGIE   180720050000000000000000   18072005200720050030000000000000000
000000001041621509100  949795670000000001Autorizada                                   0100404205170000000000Páez Vera Boris     020920050000000000000000   02092005020920050010000000000000000
000000001046743729100  147153550000000001Autorizada                                   0101138468790000000000Stuardo Bahamóndez S220620050000000000000000   22062005060720050150000000000000000
000000001046743729100  147153650000000001Autorizada                                   0101138468790000000000Stuardo Bahamóndez S060720050000000000000000   07072005210720050150000000000000000
000000001046858039100  147202290000000001Autorizada                                   0101045826560000000000Contreras Carrasco L240620050000000000000000   27062005280620050020000000000000000
000000001046858039100  947202290000000001Autorizada                                   0101045826560000000000Contreras Carrasco L240620050000000000000000   24062005260620050030000000000000000
000000001046858039100  947174720000000001Autorizada                                   0101445903250000000000Cabezas Monsalve Vìc110620050000000000000000   12062005140620050030000000000000000
000000001046858039100  142474270000000001Autorizada                                   0101272246840000000000Sandoval Martínez An280620050000000000000000   29062005010720050030000000000000000
000000001049381329100  962873440000000001Autorizada                                   0100677600260000000000Vignolo Barchiesi Ja180820050000000000000000   19082005210820050030000000000000000
000000001049381329100  166627540000000001Autorizada                                   0100677600260000000000Vignolo Barchiessi J240820050000000000000000   25082005310820050070000000000000000
000000001049381329100  162873440000000001Autorizada                                   0100677600260000000000Vignolo Barchiesi Ja180820050000000000000000   22082005240820050030000000000000000
000000001068343939100  966657800000000001Autorizada                                   0100783859440000000000Marambio Osorio Guil230920050000000000000000   23092005250920050030000000000000000
000000001068343939100  166657800000000001Autorizada                                   0100783859440000000000Marambio Osorio Guil230920050000000000000000   26092005021020050070000000000000000
000000001068343939100  942474390000000001Autorizada                                   01004988429K0000000000MENDOZA GOMEZ JUAN  160720050000000000000000   16072005170720050020000000000000000
000000001070991079100  154515190000000001Autorizada                                   0100657786450000000000Serantes Cristal Jor020620050000000000000000   02062005110620050100000000000000000
000000001070991079100  154563670000000001Autorizada                                   0100657786450000000000Serantes Cristal Jor140620050000000000000000   12062005020720050210000000000000000
000000001070991079100  154579990000000001Autorizada                                   0100657786450000000000Serantes Cristal Jor020720050000000000000000   03072005090720050070000000000000000
000000001070991079100  942474110000000001Autorizada                                   0101272246840000000000Sandoval Martínez An280520050000000000000000   29052005310520050030000000000000000
000000001070991079100  156395610000000001Autorizada                                   0100657786450000000000Serantes Cristal Jor110720050000000000000000   10072005160720050070000000000000000
000000001070991079100  142474110000000001Autorizada                                   0101272246840000000000Sandoval Martínez An280520050000000000000000   01062005010620050010000000000000000
000000001074528939100  938987810000000001Autorizada                                   0100482039140000000000Farias Ferdman Carlo050820050000000000000000   05082005060820050020000000000000000
000000001074528939100  944580090000000001Autorizada                                   0101272246840000000000Sandoval Martínez An200920050000000000000000   20092005220920050030000000000000000
000000001074528939100  144580090000000001Autorizada                                   0101272246840000000000Sandoval Martínez An200920050000000000000000   23092005260920050040000000000000000
0000000010748163K9050     113000000000001Autorizada                                   01010748163K0000000000ANTHONY JACKSON     030520050000000000000000   01052005150520050150000000000000000
000000001076421619100  942474220000000001Autorizada                                   0101272246840000000000Sandoval Martínez An230620050000000000000000   23062005250620050030000000000000000
000000001076421619100  142474220000000001Autorizada                                   0101272246840000000000Sandoval Martínez An230620050000000000000000   26062005290620050040000000000000000
000000001076421619100  142474250000000001Autorizada                                   0101272246840000000000Sandoval Martínez An280620050000000000000000   30062005040720050050000000000000000
000000001081679559100  143396470000000001Autorizada                                   0100373654080000000000García Toso Claudio 050920050000000000000000   09092005120920050040000000000000000
000000001081679559100  943396470000000001Autorizada                                   0100373654080000000000García Toso Claudio 050920050000000000000000   06092005080920050030000000000000000
000000001084194159100  150822630000000001Autorizada                                   0100456139410000000000Gliene Pinau Irma   060720050000000000000000   09072005150720050070000000000000000
000000001084194159100  950822630000000001Autorizada                                   0100456139410000000000Gliene Pinau Irma   060720050000000000000000   06072005080720050030000000000000000
000000001096371819100  947139360000000001Autorizada                                   0101019076430000000000Munnier Massou Cassi230620050000000000000000   23062005250620050030000000000000000
000000001133124169100  949848140000000001Autorizada                                   0100640528530000000000Peragallo Pizzorno V080920050000000000000000   08092005080920050010000000000000000
000000001133160719100  942474040000000001Autorizada                                   01004988429K0000000000Mendoza Gómez Juan  190520050000000000000000   19052005190520050010000000000000000
000000001138664119100  944580100000000001Autorizada                                   01004988429K0000000000Mendoza Gómez Juan  210920050000000000000000   21092005210920050010000000000000000
000000001162053009100  959935780000000001Autorizada                                   0100717718570000000000Toledo Daponte Magda290820050000000000000000   29082005310820050030000000000000000
000000001162053009100  922256950000000001Autorizada                                   0100691050840000000000VILLEGAS FIGUEROA VI190720050000000000000000   19072005210720050030000000000000000
000000001162053009100  122256950000000001Autorizada                                   0100691050840000000000VILLEGAS FIGUEROA VI190720050000000000000000   22072005250720050040000000000000000
000000001162053009100  159935790000000001Autorizada                                   0100717718570000000000Toledo Daponte Magda020920050000000000000000   05092005090920050050000000000000000
000000001162053009100  159900730000000001Autorizada                                   0100599776360000000000Ortega Urra Norma   260720050000000000000000   26072005300720050050000000000000000
000000001162053009100  159935780000000001Autorizada                                   0100717718570000000000Toledo Daponte Magda290820050000000000000000   01092005040920050040000000000000000
000000001178533579100  149760540000000001Autorizada                                   0100881470220000000000Jensen Reyes Werner 150820050000000000000000   16082005290820050140000000000000000
000000001178533579100  154532690000000001Autorizada                                   0100881470220000000000Jensen Reyes Wenner 300620050000000000000000   30082005090920050110000000000000000
000000001211191029100  149394740000000001Autorizada                                   0100905825260000000000Medina Maldonado Ped300620050000000000000000   30062005140720050150000000000000000
000000001216573689100  952633700000000001Autorizada                                   0102120798390000000000Vasiler Olaverri Was010520050000000000000000   01052005030520050030000000000000000
000000001217270729100  949758520000000001Autorizada                                   0101247830110000000000Guerra Bórquez Aleja250820050000000000000000   25082005260820050020000000000000000
000000001221606969100  152731490000000001Autorizada                                   0100823073890000000000Ammann Escobillana E040520050000000000000000   05052005160520050120000000000000000
000000001221606969100  148264610000000001Autorizada                                   0100823073890000000000Amann Escobillana Ed280620050000000000000000   01072005280720050280000000000000000
000000001221606969100  144579460000000001Autorizada                                   0100823073890000000000Amann Escobillana Ed120520050000000000000000   17052005310520050150000000000000000
000000001221606969100  154491460000000001Autorizada                                   0100823073890000000000Ammann Escobillana E150620050000000000000000   16062005300620050150000000000000000
000000001221606969100  154491240000000001Autorizada                                   0100000000190000000000Eduardo Ammann E.   310520050000000000000000   01062005150620050150000000000000000
000000001221606969100  156404370000000001Autorizada                                   0100823073890000000000Amman Escobillana   080820050000000000000000   29072005201020050840000000000000000
0000000012399454K9100  144584430000000001Autorizada                                   0100646760320000000000JORQUERA VERDUGO JOS270520050000000000000000   30052005010620050030000000000000000
0000000012399454K9100  944584430000000001Autorizada                                   0100646760320000000000Jorquera Verdugo Jos270520050000000000000000   27052005290520050030000000000000000
000000001240168949100  159940880000000001Autorizada                                   0100866593790000000000Parada Corvalán Rodr010720050000000000000000   21062005240620050040000000000000000
000000001240168949100  159940890000000001Autorizada                                   0100866593790000000000Parada Corvalán Rodr010720050000000000000000   25062005160920050840000000000000000
000000001240168949100  159940650000000001Autorizada                                   0100866593790000000000Parada Corvalán Rodr130520050000000000000000   10052005200620050420000000000000000
000000001240168949100  152666470000000001Autorizada                                   0100858035570000000000Ramolfo Bermúdez Pam200920050000000000000000   24092005300920050070000000000000000
000000001240168949100  152666430000000001Autorizada                                   0100858035570000000000Ramolfo Bermúdez Pam080920050000000000000000   17092005230920050070000000000000000
000000001271977419100  939267980000000001Autorizada                                   0101272246840000000000Sandoval Martínez An020520050000000000000000   01052005030520050030000000000000000
000000001318576329100  147432060000000001Autorizada                                   0100000000190000000000Narbia Rojas Emilio 060620050000000000000000   08062005090620050020000000000000000
000000001318576329100  911572500000000001Autorizada                                   0100862893930000000000Bustos Navarrete Gon060920050000000000000000   07092005090920050030000000000000000
000000001318576329100  110974500000000001Autorizada                                   0100862893930000000000Bustos Navarrete Gon130920050000000000000000   14092005200920050070000000000000000
000000001318576329100  947432060000000001Autorizada                                   0100000000190000000000Narbia Rojas Emilio 060620050000000000000000   05062005070620050030000000000000000
000000001318576329100  111572500000000001Autorizada                                   0100862893930000000000Bustos Navarrete Gon060920050000000000000000   10092005130920050040000000000000000
000000001319319729100  142474150000000001Autorizada                                   0101272246840000000000sandoval            300520050000000000000000   05062005070620050030000000000000000
000000001319319729100  942474150000000001Autorizada                                   0101272246840000000000sandoval            300520050000000000000000   02062005040620050030000000000000000
000000001333118319100  154498360000000001Autorizada                                   0100803083100000000000Rosales M. Rose     080620050000000000000000   06062005250620050200000000000000000
000000001333118319100  152680950000000001Autorizada                                   0100803083100000000000Rosales Maureira Ros160520050000000000000000   17052005050620050200000000000000000
000000001333118319100  149124950000000001Autorizada                                   0100730373870000000000Torregrosa Muñoz Xim110720050000000000000000   11072005150720050050000000000000000
000000001333118319100  156332730000000001Autorizada                                   0100803083100000000000Rosales Maureira Ros240620050000000000000000   26062005100720050150000000000000000
000000001336481439100  159778030000000001Autorizada                                   0100991514980000000000Moreno Bobadilla Mar080920050000000000000000   07092005200920050140000000000000000
000000001336481439100  159778140000000001Autorizada                                   0100991514980000000000Moreno Bobadilla Mar220920050000000000000000   22092005011020050100000000000000000
000000001336481439100  154562970000000001Autorizada                                   0100991514980000000000Moreno Bobadilla Mar250820050000000000000000   26082005060920050120000000000000000
000000001399061609100  942474060000000001Autorizada                                   01004988429K0000000000Mendoza Gómez Juan  250520050000000000000000   25052005250520050010000000000000000
000000001399061609100  942474460000000001Autorizada                                   01004988429K0000000000Mendoza Gómez Juan  040820050000000000000000   04082005040820050010000000000000000
000000001399061609100  942474330000000001Autorizada                                   0101272246840000000000Sandoval Martínez An090720050000000000000000   09072005090720050010000000000000000
000000001399120719100  942474280000000001Autorizada                                   0101272246840000000000Sandoval Martínez An280620050000000000000000   28062005300620050030000000000000000
000000001399120719100  142474280000000001Autorizada                                   0101272246840000000000Sandoval Martínez An280620050000000000000000   01072005010720050010000000000000000
0000000014253200K9100  154543640000000001Autorizada                                   0100870285850000000000ABDE CARVAJAL JORGE 060620050000000000000000   09062005100620050020000000000000000
0000000014253200K9100  954543640000000001Autorizada                                   0100870285850000000000ABDE CARVAJAL JORGE 060620050000000000000000   06062005080620050030000000000000000
000000001433686619100  956390640000000001Autorizada                                   0101437577650000000000Hola Bustamante José240820050000000000000000   24082005250820050020000000000000000
000000001448172309100  147284240000000001Autorizada                                   01008677786K0000000000Carmona Mena Carolin150620050000000000000000   15062005140720050300000000000000000
000000001448172309100  147284340000000001Autorizada                                   01008677786K0000000000CARMONA MENA CAROLIN080720050000000000000000   15072005310720050170000000000000000
000000001448172309100  147284180000000001Autorizada                                   01008677786K0000000000Carmona Mena Carolin310520050000000000000000   31052005140620050150000000000000000
000000001456796999100  950809840000000001Autorizada                                   0101467444510000000000Dominguez Rodas Sant040720050000000000000000   04072005060720050030000000000000000
000000001456796999100  150809840000000001Autorizada                                   0101467444510000000000Dominguez Rodas Sant040720050000000000000000   07072005100720050040000000000000000
000000001575199569100  166626570000000001Autorizada                                   0100589225950000000000Rossel Fernández Jos290820050000000000000000   29082005270920050300000000000000000
000000001575257359100  949811970000000001Autorizada                                   0101470678010000000000Avila Hernàndez Wilf120920050000000000000000   13092005150920050030000000000000000
000000001575257359100  942474370000000001Autorizada                                   01004988429K0000000000MENDOZA GOMEZ JUAN  150720050000000000000000   15072005150720050010000000000000000
000000001575257359100  156414820000000001Autorizada                                   0100927458560000000000González Díaz Juan  130920050000000000000000   18092005250920050080000000000000000
000000001575257359100  149811970000000001Autorizada                                   0101470678010000000000Avila Hernández Wilf120920050000000000000000   16092005170920050020000000000000000
